{
	"SimpleContract.sol": {
		"InheritanceContract": {
			"abi": [
				{
					"inputs": [
						{
							"internalType": "address payable",
							"name": "_recipient",
							"type": "address"
						}
					],
					"stateMutability": "nonpayable",
					"type": "constructor"
				},
				{
					"inputs": [],
					"name": "claimInheritance",
					"outputs": [],
					"stateMutability": "nonpayable",
					"type": "function"
				},
				{
					"inputs": [],
					"name": "isOwnerDeceased",
					"outputs": [
						{
							"internalType": "bool",
							"name": "",
							"type": "bool"
						}
					],
					"stateMutability": "view",
					"type": "function"
				},
				{
					"inputs": [],
					"name": "markOwnerDeceased",
					"outputs": [],
					"stateMutability": "nonpayable",
					"type": "function"
				},
				{
					"inputs": [],
					"name": "owner",
					"outputs": [
						{
							"internalType": "address",
							"name": "",
							"type": "address"
						}
					],
					"stateMutability": "view",
					"type": "function"
				},
				{
					"inputs": [],
					"name": "recipient",
					"outputs": [
						{
							"internalType": "address payable",
							"name": "",
							"type": "address"
						}
					],
					"stateMutability": "view",
					"type": "function"
				},
				{
					"stateMutability": "payable",
					"type": "receive"
				}
			],
			"devdoc": {
				"kind": "dev",
				"methods": {},
				"version": 1
			},
			"evm": {
				"assembly": "    /* \"SimpleContract.sol\":67:1100  contract InheritanceContract {... */\n  mstore(0x40, 0x80)\n    /* \"SimpleContract.sol\":205:349  constructor(address payable _recipient) {... */\n  callvalue\n  dup1\n  iszero\n  tag_1\n  jumpi\n  revert(0x00, 0x00)\ntag_1:\n  pop\n  mload(0x40)\n  sub(codesize, bytecodeSize)\n  dup1\n  bytecodeSize\n  dup4\n  codecopy\n  dup2\n  dup2\n  add\n  0x40\n  mstore\n  dup2\n  add\n  swap1\n  tag_2\n  swap2\n  swap1\n  tag_3\n  jump\t// in\ntag_2:\n    /* \"SimpleContract.sol\":264:274  msg.sender */\n  caller\n    /* \"SimpleContract.sol\":256:261  owner */\n  0x01\n  0x00\n    /* \"SimpleContract.sol\":256:274  owner = msg.sender */\n  0x0100\n  exp\n  dup2\n  sload\n  dup2\n  0xffffffffffffffffffffffffffffffffffffffff\n  mul\n  not\n  and\n  swap1\n  dup4\n  0xffffffffffffffffffffffffffffffffffffffff\n  and\n  mul\n  or\n  swap1\n  sstore\n  pop\n    /* \"SimpleContract.sol\":297:307  _recipient */\n  dup1\n    /* \"SimpleContract.sol\":285:294  recipient */\n  0x00\n  0x00\n    /* \"SimpleContract.sol\":285:307  recipient = _recipient */\n  0x0100\n  exp\n  dup2\n  sload\n  dup2\n  0xffffffffffffffffffffffffffffffffffffffff\n  mul\n  not\n  and\n  swap1\n  dup4\n  0xffffffffffffffffffffffffffffffffffffffff\n  and\n  mul\n  or\n  swap1\n  sstore\n  pop\n    /* \"SimpleContract.sol\":336:341  false */\n  0x00\n    /* \"SimpleContract.sol\":318:333  isOwnerDeceased */\n  0x01\n  0x14\n    /* \"SimpleContract.sol\":318:341  isOwnerDeceased = false */\n  0x0100\n  exp\n  dup2\n  sload\n  dup2\n  0xff\n  mul\n  not\n  and\n  swap1\n  dup4\n  iszero\n  iszero\n  mul\n  or\n  swap1\n  sstore\n  pop\n    /* \"SimpleContract.sol\":205:349  constructor(address payable _recipient) {... */\n  pop\n    /* \"SimpleContract.sol\":67:1100  contract InheritanceContract {... */\n  jump(tag_6)\n    /* \"#utility.yul\":88:205   */\ntag_8:\n    /* \"#utility.yul\":197:198   */\n  0x00\n    /* \"#utility.yul\":194:195   */\n  0x00\n    /* \"#utility.yul\":187:199   */\n  revert\n    /* \"#utility.yul\":334:460   */\ntag_10:\n    /* \"#utility.yul\":371:378   */\n  0x00\n    /* \"#utility.yul\":411:453   */\n  0xffffffffffffffffffffffffffffffffffffffff\n    /* \"#utility.yul\":404:409   */\n  dup3\n    /* \"#utility.yul\":400:454   */\n  and\n    /* \"#utility.yul\":389:454   */\n  swap1\n  pop\n    /* \"#utility.yul\":334:460   */\n  swap2\n  swap1\n  pop\n  jump\t// out\n    /* \"#utility.yul\":466:570   */\ntag_11:\n    /* \"#utility.yul\":511:518   */\n  0x00\n    /* \"#utility.yul\":540:564   */\n  tag_20\n    /* \"#utility.yul\":558:563   */\n  dup3\n    /* \"#utility.yul\":540:564   */\n  tag_10\n  jump\t// in\ntag_20:\n    /* \"#utility.yul\":529:564   */\n  swap1\n  pop\n    /* \"#utility.yul\":466:570   */\n  swap2\n  swap1\n  pop\n  jump\t// out\n    /* \"#utility.yul\":576:714   */\ntag_12:\n    /* \"#utility.yul\":657:689   */\n  tag_22\n    /* \"#utility.yul\":683:688   */\n  dup2\n    /* \"#utility.yul\":657:689   */\n  tag_11\n  jump\t// in\ntag_22:\n    /* \"#utility.yul\":650:655   */\n  dup2\n    /* \"#utility.yul\":647:690   */\n  eq\n    /* \"#utility.yul\":637:708   */\n  tag_23\n  jumpi\n    /* \"#utility.yul\":704:705   */\n  0x00\n    /* \"#utility.yul\":701:702   */\n  0x00\n    /* \"#utility.yul\":694:706   */\n  revert\n    /* \"#utility.yul\":637:708   */\ntag_23:\n    /* \"#utility.yul\":576:714   */\n  pop\n  jump\t// out\n    /* \"#utility.yul\":720:879   */\ntag_13:\n    /* \"#utility.yul\":785:790   */\n  0x00\n    /* \"#utility.yul\":816:822   */\n  dup2\n    /* \"#utility.yul\":810:823   */\n  mload\n    /* \"#utility.yul\":801:823   */\n  swap1\n  pop\n    /* \"#utility.yul\":832:873   */\n  tag_25\n    /* \"#utility.yul\":867:872   */\n  dup2\n    /* \"#utility.yul\":832:873   */\n  tag_12\n  jump\t// in\ntag_25:\n    /* \"#utility.yul\":720:879   */\n  swap3\n  swap2\n  pop\n  pop\n  jump\t// out\n    /* \"#utility.yul\":885:1252   */\ntag_3:\n    /* \"#utility.yul\":963:969   */\n  0x00\n    /* \"#utility.yul\":1012:1014   */\n  0x20\n    /* \"#utility.yul\":1000:1009   */\n  dup3\n    /* \"#utility.yul\":991:998   */\n  dup5\n    /* \"#utility.yul\":987:1010   */\n  sub\n    /* \"#utility.yul\":983:1015   */\n  slt\n    /* \"#utility.yul\":980:1099   */\n  iszero\n  tag_27\n  jumpi\n    /* \"#utility.yul\":1018:1097   */\n  tag_28\n  tag_8\n  jump\t// in\ntag_28:\n    /* \"#utility.yul\":980:1099   */\ntag_27:\n    /* \"#utility.yul\":1138:1139   */\n  0x00\n    /* \"#utility.yul\":1163:1235   */\n  tag_29\n    /* \"#utility.yul\":1227:1234   */\n  dup5\n    /* \"#utility.yul\":1218:1224   */\n  dup3\n    /* \"#utility.yul\":1207:1216   */\n  dup6\n    /* \"#utility.yul\":1203:1225   */\n  add\n    /* \"#utility.yul\":1163:1235   */\n  tag_13\n  jump\t// in\ntag_29:\n    /* \"#utility.yul\":1153:1235   */\n  swap2\n  pop\n    /* \"#utility.yul\":1109:1245   */\n  pop\n    /* \"#utility.yul\":885:1252   */\n  swap3\n  swap2\n  pop\n  pop\n  jump\t// out\n    /* \"SimpleContract.sol\":67:1100  contract InheritanceContract {... */\ntag_6:\n  dataSize(sub_0)\n  dup1\n  dataOffset(sub_0)\n  0x00\n  codecopy\n  0x00\n  return\nstop\n\nsub_0: assembly {\n        /* \"SimpleContract.sol\":67:1100  contract InheritanceContract {... */\n      mstore(0x40, 0x80)\n      jumpi(tag_1, lt(calldatasize, 0x04))\n      shr(0xe0, calldataload(0x00))\n      dup1\n      0x17e99bb8\n      eq\n      tag_3\n      jumpi\n      dup1\n      0x482fbcf7\n      eq\n      tag_4\n      jumpi\n      dup1\n      0x66d003ac\n      eq\n      tag_5\n      jumpi\n      dup1\n      0x8da5cb5b\n      eq\n      tag_6\n      jumpi\n      dup1\n      0x9f3c4416\n      eq\n      tag_7\n      jumpi\n      jump(tag_2)\n    tag_1:\n      jumpi(tag_2, calldatasize)\n      stop\n    tag_2:\n      revert(0x00, 0x00)\n        /* \"SimpleContract.sol\":647:736  function markOwnerDeceased() external onlyOwner {... */\n    tag_3:\n      callvalue\n      dup1\n      iszero\n      tag_10\n      jumpi\n      revert(0x00, 0x00)\n    tag_10:\n      pop\n      tag_11\n      tag_12\n      jump\t// in\n    tag_11:\n      stop\n        /* \"SimpleContract.sol\":169:196  bool public isOwnerDeceased */\n    tag_4:\n      callvalue\n      dup1\n      iszero\n      tag_13\n      jumpi\n      revert(0x00, 0x00)\n    tag_13:\n      pop\n      tag_14\n      tag_15\n      jump\t// in\n    tag_14:\n      mload(0x40)\n      tag_16\n      swap2\n      swap1\n      tag_17\n      jump\t// in\n    tag_16:\n      mload(0x40)\n      dup1\n      swap2\n      sub\n      swap1\n      return\n        /* \"SimpleContract.sol\":103:135  address payable public recipient */\n    tag_5:\n      callvalue\n      dup1\n      iszero\n      tag_18\n      jumpi\n      revert(0x00, 0x00)\n    tag_18:\n      pop\n      tag_19\n      tag_20\n      jump\t// in\n    tag_19:\n      mload(0x40)\n      tag_21\n      swap2\n      swap1\n      tag_22\n      jump\t// in\n    tag_21:\n      mload(0x40)\n      dup1\n      swap2\n      sub\n      swap1\n      return\n        /* \"SimpleContract.sol\":142:162  address public owner */\n    tag_6:\n      callvalue\n      dup1\n      iszero\n      tag_23\n      jumpi\n      revert(0x00, 0x00)\n    tag_23:\n      pop\n      tag_24\n      tag_25\n      jump\t// in\n    tag_24:\n      mload(0x40)\n      tag_26\n      swap2\n      swap1\n      tag_27\n      jump\t// in\n    tag_26:\n      mload(0x40)\n      dup1\n      swap2\n      sub\n      swap1\n      return\n        /* \"SimpleContract.sol\":744:1014  function claimInheritance() external onlyRecipient {... */\n    tag_7:\n      callvalue\n      dup1\n      iszero\n      tag_28\n      jumpi\n      revert(0x00, 0x00)\n    tag_28:\n      pop\n      tag_29\n      tag_30\n      jump\t// in\n    tag_29:\n      stop\n        /* \"SimpleContract.sol\":647:736  function markOwnerDeceased() external onlyOwner {... */\n    tag_12:\n        /* \"SimpleContract.sol\":415:420  owner */\n      0x01\n      0x00\n      swap1\n      sload\n      swap1\n      0x0100\n      exp\n      swap1\n      div\n      0xffffffffffffffffffffffffffffffffffffffff\n      and\n        /* \"SimpleContract.sol\":401:420  msg.sender == owner */\n      0xffffffffffffffffffffffffffffffffffffffff\n      and\n        /* \"SimpleContract.sol\":401:411  msg.sender */\n      caller\n        /* \"SimpleContract.sol\":401:420  msg.sender == owner */\n      0xffffffffffffffffffffffffffffffffffffffff\n      and\n      eq\n        /* \"SimpleContract.sol\":393:469  require(msg.sender == owner, \"Only contract owner can access this function\") */\n      tag_32\n      jumpi\n      mload(0x40)\n      0x08c379a000000000000000000000000000000000000000000000000000000000\n      dup2\n      mstore\n      0x04\n      add\n      tag_33\n      swap1\n      tag_34\n      jump\t// in\n    tag_33:\n      mload(0x40)\n      dup1\n      swap2\n      sub\n      swap1\n      revert\n    tag_32:\n        /* \"SimpleContract.sol\":724:728  true */\n      0x01\n        /* \"SimpleContract.sol\":706:721  isOwnerDeceased */\n      dup1\n      0x14\n        /* \"SimpleContract.sol\":706:728  isOwnerDeceased = true */\n      0x0100\n      exp\n      dup2\n      sload\n      dup2\n      0xff\n      mul\n      not\n      and\n      swap1\n      dup4\n      iszero\n      iszero\n      mul\n      or\n      swap1\n      sstore\n      pop\n        /* \"SimpleContract.sol\":647:736  function markOwnerDeceased() external onlyOwner {... */\n      jump\t// out\n        /* \"SimpleContract.sol\":169:196  bool public isOwnerDeceased */\n    tag_15:\n      0x01\n      0x14\n      swap1\n      sload\n      swap1\n      0x0100\n      exp\n      swap1\n      div\n      0xff\n      and\n      dup2\n      jump\t// out\n        /* \"SimpleContract.sol\":103:135  address payable public recipient */\n    tag_20:\n      0x00\n      0x00\n      swap1\n      sload\n      swap1\n      0x0100\n      exp\n      swap1\n      div\n      0xffffffffffffffffffffffffffffffffffffffff\n      and\n      dup2\n      jump\t// out\n        /* \"SimpleContract.sol\":142:162  address public owner */\n    tag_25:\n      0x01\n      0x00\n      swap1\n      sload\n      swap1\n      0x0100\n      exp\n      swap1\n      div\n      0xffffffffffffffffffffffffffffffffffffffff\n      and\n      dup2\n      jump\t// out\n        /* \"SimpleContract.sol\":744:1014  function claimInheritance() external onlyRecipient {... */\n    tag_30:\n        /* \"SimpleContract.sol\":555:564  recipient */\n      0x00\n      0x00\n      swap1\n      sload\n      swap1\n      0x0100\n      exp\n      swap1\n      div\n      0xffffffffffffffffffffffffffffffffffffffff\n      and\n        /* \"SimpleContract.sol\":541:564  msg.sender == recipient */\n      0xffffffffffffffffffffffffffffffffffffffff\n      and\n        /* \"SimpleContract.sol\":541:551  msg.sender */\n      caller\n        /* \"SimpleContract.sol\":541:564  msg.sender == recipient */\n      0xffffffffffffffffffffffffffffffffffffffff\n      and\n      eq\n        /* \"SimpleContract.sol\":533:619  require(msg.sender == recipient, \"Only designated recipient can access this function\") */\n      tag_37\n      jumpi\n      mload(0x40)\n      0x08c379a000000000000000000000000000000000000000000000000000000000\n      dup2\n      mstore\n      0x04\n      add\n      tag_38\n      swap1\n      tag_39\n      jump\t// in\n    tag_38:\n      mload(0x40)\n      dup1\n      swap2\n      sub\n      swap1\n      revert\n    tag_37:\n        /* \"SimpleContract.sol\":814:829  isOwnerDeceased */\n      0x01\n      0x14\n      swap1\n      sload\n      swap1\n      0x0100\n      exp\n      swap1\n      div\n      0xff\n      and\n        /* \"SimpleContract.sol\":806:871  require(isOwnerDeceased, \"Owner has not been declared deceased.\") */\n      tag_41\n      jumpi\n      mload(0x40)\n      0x08c379a000000000000000000000000000000000000000000000000000000000\n      dup2\n      mstore\n      0x04\n      add\n      tag_42\n      swap1\n      tag_43\n      jump\t// in\n    tag_42:\n      mload(0x40)\n      dup1\n      swap2\n      sub\n      swap1\n      revert\n    tag_41:\n        /* \"SimpleContract.sol\":914:915  0 */\n      0x00\n        /* \"SimpleContract.sol\":890:911  address(this).balance */\n      selfbalance\n        /* \"SimpleContract.sol\":890:915  address(this).balance > 0 */\n      gt\n        /* \"SimpleContract.sol\":882:954  require(address(this).balance > 0, \"No funds available for withdrawal.\") */\n      tag_44\n      jumpi\n      mload(0x40)\n      0x08c379a000000000000000000000000000000000000000000000000000000000\n      dup2\n      mstore\n      0x04\n      add\n      tag_45\n      swap1\n      tag_46\n      jump\t// in\n    tag_45:\n      mload(0x40)\n      dup1\n      swap2\n      sub\n      swap1\n      revert\n    tag_44:\n        /* \"SimpleContract.sol\":965:974  recipient */\n      0x00\n      0x00\n      swap1\n      sload\n      swap1\n      0x0100\n      exp\n      swap1\n      div\n      0xffffffffffffffffffffffffffffffffffffffff\n      and\n        /* \"SimpleContract.sol\":965:983  recipient.transfer */\n      0xffffffffffffffffffffffffffffffffffffffff\n      and\n        /* \"SimpleContract.sol\":965:1006  recipient.transfer(address(this).balance) */\n      0x08fc\n        /* \"SimpleContract.sol\":984:1005  address(this).balance */\n      selfbalance\n        /* \"SimpleContract.sol\":965:1006  recipient.transfer(address(this).balance) */\n      swap1\n      dup2\n      iszero\n      mul\n      swap1\n      mload(0x40)\n      0x00\n      mload(0x40)\n      dup1\n      dup4\n      sub\n      dup2\n      dup6\n      dup9\n      dup9\n      call\n      swap4\n      pop\n      pop\n      pop\n      pop\n      iszero\n      dup1\n      iszero\n      tag_48\n      jumpi\n      returndatacopy(0x00, 0x00, returndatasize)\n      revert(0x00, returndatasize)\n    tag_48:\n      pop\n        /* \"SimpleContract.sol\":744:1014  function claimInheritance() external onlyRecipient {... */\n      jump\t// out\n        /* \"#utility.yul\":7:97   */\n    tag_49:\n        /* \"#utility.yul\":41:48   */\n      0x00\n        /* \"#utility.yul\":84:89   */\n      dup2\n        /* \"#utility.yul\":77:90   */\n      iszero\n        /* \"#utility.yul\":70:91   */\n      iszero\n        /* \"#utility.yul\":59:91   */\n      swap1\n      pop\n        /* \"#utility.yul\":7:97   */\n      swap2\n      swap1\n      pop\n      jump\t// out\n        /* \"#utility.yul\":103:212   */\n    tag_50:\n        /* \"#utility.yul\":184:205   */\n      tag_68\n        /* \"#utility.yul\":199:204   */\n      dup2\n        /* \"#utility.yul\":184:205   */\n      tag_49\n      jump\t// in\n    tag_68:\n        /* \"#utility.yul\":179:182   */\n      dup3\n        /* \"#utility.yul\":172:206   */\n      mstore\n        /* \"#utility.yul\":103:212   */\n      pop\n      pop\n      jump\t// out\n        /* \"#utility.yul\":218:428   */\n    tag_17:\n        /* \"#utility.yul\":305:309   */\n      0x00\n        /* \"#utility.yul\":343:345   */\n      0x20\n        /* \"#utility.yul\":332:341   */\n      dup3\n        /* \"#utility.yul\":328:346   */\n      add\n        /* \"#utility.yul\":320:346   */\n      swap1\n      pop\n        /* \"#utility.yul\":356:421   */\n      tag_70\n        /* \"#utility.yul\":418:419   */\n      0x00\n        /* \"#utility.yul\":407:416   */\n      dup4\n        /* \"#utility.yul\":403:420   */\n      add\n        /* \"#utility.yul\":394:400   */\n      dup5\n        /* \"#utility.yul\":356:421   */\n      tag_50\n      jump\t// in\n    tag_70:\n        /* \"#utility.yul\":218:428   */\n      swap3\n      swap2\n      pop\n      pop\n      jump\t// out\n        /* \"#utility.yul\":434:560   */\n    tag_51:\n        /* \"#utility.yul\":471:478   */\n      0x00\n        /* \"#utility.yul\":511:553   */\n      0xffffffffffffffffffffffffffffffffffffffff\n        /* \"#utility.yul\":504:509   */\n      dup3\n        /* \"#utility.yul\":500:554   */\n      and\n        /* \"#utility.yul\":489:554   */\n      swap1\n      pop\n        /* \"#utility.yul\":434:560   */\n      swap2\n      swap1\n      pop\n      jump\t// out\n        /* \"#utility.yul\":566:670   */\n    tag_52:\n        /* \"#utility.yul\":611:618   */\n      0x00\n        /* \"#utility.yul\":640:664   */\n      tag_73\n        /* \"#utility.yul\":658:663   */\n      dup3\n        /* \"#utility.yul\":640:664   */\n      tag_51\n      jump\t// in\n    tag_73:\n        /* \"#utility.yul\":629:664   */\n      swap1\n      pop\n        /* \"#utility.yul\":566:670   */\n      swap2\n      swap1\n      pop\n      jump\t// out\n        /* \"#utility.yul\":676:818   */\n    tag_53:\n        /* \"#utility.yul\":779:811   */\n      tag_75\n        /* \"#utility.yul\":805:810   */\n      dup2\n        /* \"#utility.yul\":779:811   */\n      tag_52\n      jump\t// in\n    tag_75:\n        /* \"#utility.yul\":774:777   */\n      dup3\n        /* \"#utility.yul\":767:812   */\n      mstore\n        /* \"#utility.yul\":676:818   */\n      pop\n      pop\n      jump\t// out\n        /* \"#utility.yul\":824:1078   */\n    tag_22:\n        /* \"#utility.yul\":933:937   */\n      0x00\n        /* \"#utility.yul\":971:973   */\n      0x20\n        /* \"#utility.yul\":960:969   */\n      dup3\n        /* \"#utility.yul\":956:974   */\n      add\n        /* \"#utility.yul\":948:974   */\n      swap1\n      pop\n        /* \"#utility.yul\":984:1071   */\n      tag_77\n        /* \"#utility.yul\":1068:1069   */\n      0x00\n        /* \"#utility.yul\":1057:1066   */\n      dup4\n        /* \"#utility.yul\":1053:1070   */\n      add\n        /* \"#utility.yul\":1044:1050   */\n      dup5\n        /* \"#utility.yul\":984:1071   */\n      tag_53\n      jump\t// in\n    tag_77:\n        /* \"#utility.yul\":824:1078   */\n      swap3\n      swap2\n      pop\n      pop\n      jump\t// out\n        /* \"#utility.yul\":1084:1180   */\n    tag_54:\n        /* \"#utility.yul\":1121:1128   */\n      0x00\n        /* \"#utility.yul\":1150:1174   */\n      tag_79\n        /* \"#utility.yul\":1168:1173   */\n      dup3\n        /* \"#utility.yul\":1150:1174   */\n      tag_51\n      jump\t// in\n    tag_79:\n        /* \"#utility.yul\":1139:1174   */\n      swap1\n      pop\n        /* \"#utility.yul\":1084:1180   */\n      swap2\n      swap1\n      pop\n      jump\t// out\n        /* \"#utility.yul\":1186:1304   */\n    tag_55:\n        /* \"#utility.yul\":1273:1297   */\n      tag_81\n        /* \"#utility.yul\":1291:1296   */\n      dup2\n        /* \"#utility.yul\":1273:1297   */\n      tag_54\n      jump\t// in\n    tag_81:\n        /* \"#utility.yul\":1268:1271   */\n      dup3\n        /* \"#utility.yul\":1261:1298   */\n      mstore\n        /* \"#utility.yul\":1186:1304   */\n      pop\n      pop\n      jump\t// out\n        /* \"#utility.yul\":1310:1532   */\n    tag_27:\n        /* \"#utility.yul\":1403:1407   */\n      0x00\n        /* \"#utility.yul\":1441:1443   */\n      0x20\n        /* \"#utility.yul\":1430:1439   */\n      dup3\n        /* \"#utility.yul\":1426:1444   */\n      add\n        /* \"#utility.yul\":1418:1444   */\n      swap1\n      pop\n        /* \"#utility.yul\":1454:1525   */\n      tag_83\n        /* \"#utility.yul\":1522:1523   */\n      0x00\n        /* \"#utility.yul\":1511:1520   */\n      dup4\n        /* \"#utility.yul\":1507:1524   */\n      add\n        /* \"#utility.yul\":1498:1504   */\n      dup5\n        /* \"#utility.yul\":1454:1525   */\n      tag_55\n      jump\t// in\n    tag_83:\n        /* \"#utility.yul\":1310:1532   */\n      swap3\n      swap2\n      pop\n      pop\n      jump\t// out\n        /* \"#utility.yul\":1538:1707   */\n    tag_56:\n        /* \"#utility.yul\":1622:1633   */\n      0x00\n        /* \"#utility.yul\":1656:1662   */\n      dup3\n        /* \"#utility.yul\":1651:1654   */\n      dup3\n        /* \"#utility.yul\":1644:1663   */\n      mstore\n        /* \"#utility.yul\":1696:1700   */\n      0x20\n        /* \"#utility.yul\":1691:1694   */\n      dup3\n        /* \"#utility.yul\":1687:1701   */\n      add\n        /* \"#utility.yul\":1672:1701   */\n      swap1\n      pop\n        /* \"#utility.yul\":1538:1707   */\n      swap3\n      swap2\n      pop\n      pop\n      jump\t// out\n        /* \"#utility.yul\":1713:1944   */\n    tag_57:\n        /* \"#utility.yul\":1853:1887   */\n      0x4f6e6c7920636f6e7472616374206f776e65722063616e206163636573732074\n        /* \"#utility.yul\":1849:1850   */\n      0x00\n        /* \"#utility.yul\":1841:1847   */\n      dup3\n        /* \"#utility.yul\":1837:1851   */\n      add\n        /* \"#utility.yul\":1830:1888   */\n      mstore\n        /* \"#utility.yul\":1922:1936   */\n      0x6869732066756e6374696f6e0000000000000000000000000000000000000000\n        /* \"#utility.yul\":1917:1919   */\n      0x20\n        /* \"#utility.yul\":1909:1915   */\n      dup3\n        /* \"#utility.yul\":1905:1920   */\n      add\n        /* \"#utility.yul\":1898:1937   */\n      mstore\n        /* \"#utility.yul\":1713:1944   */\n      pop\n      jump\t// out\n        /* \"#utility.yul\":1950:2316   */\n    tag_58:\n        /* \"#utility.yul\":2092:2095   */\n      0x00\n        /* \"#utility.yul\":2113:2180   */\n      tag_87\n        /* \"#utility.yul\":2177:2179   */\n      0x2c\n        /* \"#utility.yul\":2172:2175   */\n      dup4\n        /* \"#utility.yul\":2113:2180   */\n      tag_56\n      jump\t// in\n    tag_87:\n        /* \"#utility.yul\":2106:2180   */\n      swap2\n      pop\n        /* \"#utility.yul\":2189:2282   */\n      tag_88\n        /* \"#utility.yul\":2278:2281   */\n      dup3\n        /* \"#utility.yul\":2189:2282   */\n      tag_57\n      jump\t// in\n    tag_88:\n        /* \"#utility.yul\":2307:2309   */\n      0x40\n        /* \"#utility.yul\":2302:2305   */\n      dup3\n        /* \"#utility.yul\":2298:2310   */\n      add\n        /* \"#utility.yul\":2291:2310   */\n      swap1\n      pop\n        /* \"#utility.yul\":1950:2316   */\n      swap2\n      swap1\n      pop\n      jump\t// out\n        /* \"#utility.yul\":2322:2741   */\n    tag_34:\n        /* \"#utility.yul\":2488:2492   */\n      0x00\n        /* \"#utility.yul\":2526:2528   */\n      0x20\n        /* \"#utility.yul\":2515:2524   */\n      dup3\n        /* \"#utility.yul\":2511:2529   */\n      add\n        /* \"#utility.yul\":2503:2529   */\n      swap1\n      pop\n        /* \"#utility.yul\":2575:2584   */\n      dup2\n        /* \"#utility.yul\":2569:2573   */\n      dup2\n        /* \"#utility.yul\":2565:2585   */\n      sub\n        /* \"#utility.yul\":2561:2562   */\n      0x00\n        /* \"#utility.yul\":2550:2559   */\n      dup4\n        /* \"#utility.yul\":2546:2563   */\n      add\n        /* \"#utility.yul\":2539:2586   */\n      mstore\n        /* \"#utility.yul\":2603:2734   */\n      tag_90\n        /* \"#utility.yul\":2729:2733   */\n      dup2\n        /* \"#utility.yul\":2603:2734   */\n      tag_58\n      jump\t// in\n    tag_90:\n        /* \"#utility.yul\":2595:2734   */\n      swap1\n      pop\n        /* \"#utility.yul\":2322:2741   */\n      swap2\n      swap1\n      pop\n      jump\t// out\n        /* \"#utility.yul\":2747:2984   */\n    tag_59:\n        /* \"#utility.yul\":2887:2921   */\n      0x4f6e6c792064657369676e6174656420726563697069656e742063616e206163\n        /* \"#utility.yul\":2883:2884   */\n      0x00\n        /* \"#utility.yul\":2875:2881   */\n      dup3\n        /* \"#utility.yul\":2871:2885   */\n      add\n        /* \"#utility.yul\":2864:2922   */\n      mstore\n        /* \"#utility.yul\":2956:2976   */\n      0x6365737320746869732066756e6374696f6e0000000000000000000000000000\n        /* \"#utility.yul\":2951:2953   */\n      0x20\n        /* \"#utility.yul\":2943:2949   */\n      dup3\n        /* \"#utility.yul\":2939:2954   */\n      add\n        /* \"#utility.yul\":2932:2977   */\n      mstore\n        /* \"#utility.yul\":2747:2984   */\n      pop\n      jump\t// out\n        /* \"#utility.yul\":2990:3356   */\n    tag_60:\n        /* \"#utility.yul\":3132:3135   */\n      0x00\n        /* \"#utility.yul\":3153:3220   */\n      tag_93\n        /* \"#utility.yul\":3217:3219   */\n      0x32\n        /* \"#utility.yul\":3212:3215   */\n      dup4\n        /* \"#utility.yul\":3153:3220   */\n      tag_56\n      jump\t// in\n    tag_93:\n        /* \"#utility.yul\":3146:3220   */\n      swap2\n      pop\n        /* \"#utility.yul\":3229:3322   */\n      tag_94\n        /* \"#utility.yul\":3318:3321   */\n      dup3\n        /* \"#utility.yul\":3229:3322   */\n      tag_59\n      jump\t// in\n    tag_94:\n        /* \"#utility.yul\":3347:3349   */\n      0x40\n        /* \"#utility.yul\":3342:3345   */\n      dup3\n        /* \"#utility.yul\":3338:3350   */\n      add\n        /* \"#utility.yul\":3331:3350   */\n      swap1\n      pop\n        /* \"#utility.yul\":2990:3356   */\n      swap2\n      swap1\n      pop\n      jump\t// out\n        /* \"#utility.yul\":3362:3781   */\n    tag_39:\n        /* \"#utility.yul\":3528:3532   */\n      0x00\n        /* \"#utility.yul\":3566:3568   */\n      0x20\n        /* \"#utility.yul\":3555:3564   */\n      dup3\n        /* \"#utility.yul\":3551:3569   */\n      add\n        /* \"#utility.yul\":3543:3569   */\n      swap1\n      pop\n        /* \"#utility.yul\":3615:3624   */\n      dup2\n        /* \"#utility.yul\":3609:3613   */\n      dup2\n        /* \"#utility.yul\":3605:3625   */\n      sub\n        /* \"#utility.yul\":3601:3602   */\n      0x00\n        /* \"#utility.yul\":3590:3599   */\n      dup4\n        /* \"#utility.yul\":3586:3603   */\n      add\n        /* \"#utility.yul\":3579:3626   */\n      mstore\n        /* \"#utility.yul\":3643:3774   */\n      tag_96\n        /* \"#utility.yul\":3769:3773   */\n      dup2\n        /* \"#utility.yul\":3643:3774   */\n      tag_60\n      jump\t// in\n    tag_96:\n        /* \"#utility.yul\":3635:3774   */\n      swap1\n      pop\n        /* \"#utility.yul\":3362:3781   */\n      swap2\n      swap1\n      pop\n      jump\t// out\n        /* \"#utility.yul\":3787:4011   */\n    tag_61:\n        /* \"#utility.yul\":3927:3961   */\n      0x4f776e657220686173206e6f74206265656e206465636c617265642064656365\n        /* \"#utility.yul\":3923:3924   */\n      0x00\n        /* \"#utility.yul\":3915:3921   */\n      dup3\n        /* \"#utility.yul\":3911:3925   */\n      add\n        /* \"#utility.yul\":3904:3962   */\n      mstore\n        /* \"#utility.yul\":3996:4003   */\n      0x617365642e000000000000000000000000000000000000000000000000000000\n        /* \"#utility.yul\":3991:3993   */\n      0x20\n        /* \"#utility.yul\":3983:3989   */\n      dup3\n        /* \"#utility.yul\":3979:3994   */\n      add\n        /* \"#utility.yul\":3972:4004   */\n      mstore\n        /* \"#utility.yul\":3787:4011   */\n      pop\n      jump\t// out\n        /* \"#utility.yul\":4017:4383   */\n    tag_62:\n        /* \"#utility.yul\":4159:4162   */\n      0x00\n        /* \"#utility.yul\":4180:4247   */\n      tag_99\n        /* \"#utility.yul\":4244:4246   */\n      0x25\n        /* \"#utility.yul\":4239:4242   */\n      dup4\n        /* \"#utility.yul\":4180:4247   */\n      tag_56\n      jump\t// in\n    tag_99:\n        /* \"#utility.yul\":4173:4247   */\n      swap2\n      pop\n        /* \"#utility.yul\":4256:4349   */\n      tag_100\n        /* \"#utility.yul\":4345:4348   */\n      dup3\n        /* \"#utility.yul\":4256:4349   */\n      tag_61\n      jump\t// in\n    tag_100:\n        /* \"#utility.yul\":4374:4376   */\n      0x40\n        /* \"#utility.yul\":4369:4372   */\n      dup3\n        /* \"#utility.yul\":4365:4377   */\n      add\n        /* \"#utility.yul\":4358:4377   */\n      swap1\n      pop\n        /* \"#utility.yul\":4017:4383   */\n      swap2\n      swap1\n      pop\n      jump\t// out\n        /* \"#utility.yul\":4389:4808   */\n    tag_43:\n        /* \"#utility.yul\":4555:4559   */\n      0x00\n        /* \"#utility.yul\":4593:4595   */\n      0x20\n        /* \"#utility.yul\":4582:4591   */\n      dup3\n        /* \"#utility.yul\":4578:4596   */\n      add\n        /* \"#utility.yul\":4570:4596   */\n      swap1\n      pop\n        /* \"#utility.yul\":4642:4651   */\n      dup2\n        /* \"#utility.yul\":4636:4640   */\n      dup2\n        /* \"#utility.yul\":4632:4652   */\n      sub\n        /* \"#utility.yul\":4628:4629   */\n      0x00\n        /* \"#utility.yul\":4617:4626   */\n      dup4\n        /* \"#utility.yul\":4613:4630   */\n      add\n        /* \"#utility.yul\":4606:4653   */\n      mstore\n        /* \"#utility.yul\":4670:4801   */\n      tag_102\n        /* \"#utility.yul\":4796:4800   */\n      dup2\n        /* \"#utility.yul\":4670:4801   */\n      tag_62\n      jump\t// in\n    tag_102:\n        /* \"#utility.yul\":4662:4801   */\n      swap1\n      pop\n        /* \"#utility.yul\":4389:4808   */\n      swap2\n      swap1\n      pop\n      jump\t// out\n        /* \"#utility.yul\":4814:5035   */\n    tag_63:\n        /* \"#utility.yul\":4954:4988   */\n      0x4e6f2066756e647320617661696c61626c6520666f7220776974686472617761\n        /* \"#utility.yul\":4950:4951   */\n      0x00\n        /* \"#utility.yul\":4942:4948   */\n      dup3\n        /* \"#utility.yul\":4938:4952   */\n      add\n        /* \"#utility.yul\":4931:4989   */\n      mstore\n        /* \"#utility.yul\":5023:5027   */\n      0x6c2e000000000000000000000000000000000000000000000000000000000000\n        /* \"#utility.yul\":5018:5020   */\n      0x20\n        /* \"#utility.yul\":5010:5016   */\n      dup3\n        /* \"#utility.yul\":5006:5021   */\n      add\n        /* \"#utility.yul\":4999:5028   */\n      mstore\n        /* \"#utility.yul\":4814:5035   */\n      pop\n      jump\t// out\n        /* \"#utility.yul\":5041:5407   */\n    tag_64:\n        /* \"#utility.yul\":5183:5186   */\n      0x00\n        /* \"#utility.yul\":5204:5271   */\n      tag_105\n        /* \"#utility.yul\":5268:5270   */\n      0x22\n        /* \"#utility.yul\":5263:5266   */\n      dup4\n        /* \"#utility.yul\":5204:5271   */\n      tag_56\n      jump\t// in\n    tag_105:\n        /* \"#utility.yul\":5197:5271   */\n      swap2\n      pop\n        /* \"#utility.yul\":5280:5373   */\n      tag_106\n        /* \"#utility.yul\":5369:5372   */\n      dup3\n        /* \"#utility.yul\":5280:5373   */\n      tag_63\n      jump\t// in\n    tag_106:\n        /* \"#utility.yul\":5398:5400   */\n      0x40\n        /* \"#utility.yul\":5393:5396   */\n      dup3\n        /* \"#utility.yul\":5389:5401   */\n      add\n        /* \"#utility.yul\":5382:5401   */\n      swap1\n      pop\n        /* \"#utility.yul\":5041:5407   */\n      swap2\n      swap1\n      pop\n      jump\t// out\n        /* \"#utility.yul\":5413:5832   */\n    tag_46:\n        /* \"#utility.yul\":5579:5583   */\n      0x00\n        /* \"#utility.yul\":5617:5619   */\n      0x20\n        /* \"#utility.yul\":5606:5615   */\n      dup3\n        /* \"#utility.yul\":5602:5620   */\n      add\n        /* \"#utility.yul\":5594:5620   */\n      swap1\n      pop\n        /* \"#utility.yul\":5666:5675   */\n      dup2\n        /* \"#utility.yul\":5660:5664   */\n      dup2\n        /* \"#utility.yul\":5656:5676   */\n      sub\n        /* \"#utility.yul\":5652:5653   */\n      0x00\n        /* \"#utility.yul\":5641:5650   */\n      dup4\n        /* \"#utility.yul\":5637:5654   */\n      add\n        /* \"#utility.yul\":5630:5677   */\n      mstore\n        /* \"#utility.yul\":5694:5825   */\n      tag_108\n        /* \"#utility.yul\":5820:5824   */\n      dup2\n        /* \"#utility.yul\":5694:5825   */\n      tag_64\n      jump\t// in\n    tag_108:\n        /* \"#utility.yul\":5686:5825   */\n      swap1\n      pop\n        /* \"#utility.yul\":5413:5832   */\n      swap2\n      swap1\n      pop\n      jump\t// out\n\n    auxdata: 0xa2646970667358221220561e117486b3ad22432cdae73f4c98cd9b6a85106f51776f374047f84fc2ae7464736f6c634300081e0033\n}\n",
				"bytecode": {
					"linkReferences": {},
					"object": "608060405234801561000f575f5ffd5b506040516108363803806108368339818101604052810190610031919061012e565b3360015f6101000a81548173ffffffffffffffffffffffffffffffffffffffff021916908373ffffffffffffffffffffffffffffffffffffffff160217905550805f5f6101000a81548173ffffffffffffffffffffffffffffffffffffffff021916908373ffffffffffffffffffffffffffffffffffffffff1602179055505f600160146101000a81548160ff02191690831515021790555050610159565b5f5ffd5b5f73ffffffffffffffffffffffffffffffffffffffff82169050919050565b5f6100fd826100d4565b9050919050565b61010d816100f3565b8114610117575f5ffd5b50565b5f8151905061012881610104565b92915050565b5f60208284031215610143576101426100d0565b5b5f6101508482850161011a565b91505092915050565b6106d0806101665f395ff3fe60806040526004361061004d575f3560e01c806317e99bb814610058578063482fbcf71461006e57806366d003ac146100985780638da5cb5b146100c25780639f3c4416146100ec57610054565b3661005457005b5f5ffd5b348015610063575f5ffd5b5061006c610102565b005b348015610079575f5ffd5b506100826101ad565b60405161008f91906103a8565b60405180910390f35b3480156100a3575f5ffd5b506100ac6101c0565b6040516100b99190610400565b60405180910390f35b3480156100cd575f5ffd5b506100d66101e4565b6040516100e39190610439565b60405180910390f35b3480156100f7575f5ffd5b50610100610209565b005b60015f9054906101000a900473ffffffffffffffffffffffffffffffffffffffff1673ffffffffffffffffffffffffffffffffffffffff163373ffffffffffffffffffffffffffffffffffffffff1614610191576040517f08c379a0000000000000000000000000000000000000000000000000000000008152600401610188906104d2565b60405180910390fd5b60018060146101000a81548160ff021916908315150217905550565b600160149054906101000a900460ff1681565b5f5f9054906101000a900473ffffffffffffffffffffffffffffffffffffffff1681565b60015f9054906101000a900473ffffffffffffffffffffffffffffffffffffffff1681565b5f5f9054906101000a900473ffffffffffffffffffffffffffffffffffffffff1673ffffffffffffffffffffffffffffffffffffffff163373ffffffffffffffffffffffffffffffffffffffff1614610297576040517f08c379a000000000000000000000000000000000000000000000000000000000815260040161028e90610560565b60405180910390fd5b600160149054906101000a900460ff166102e6576040517f08c379a00000000000000000000000000000000000000000000000000000000081526004016102dd906105ee565b60405180910390fd5b5f4711610328576040517f08c379a000000000000000000000000000000000000000000000000000000000815260040161031f9061067c565b60405180910390fd5b5f5f9054906101000a900473ffffffffffffffffffffffffffffffffffffffff1673ffffffffffffffffffffffffffffffffffffffff166108fc4790811502906040515f60405180830381858888f1935050505015801561038b573d5f5f3e3d5ffd5b50565b5f8115159050919050565b6103a28161038e565b82525050565b5f6020820190506103bb5f830184610399565b92915050565b5f73ffffffffffffffffffffffffffffffffffffffff82169050919050565b5f6103ea826103c1565b9050919050565b6103fa816103e0565b82525050565b5f6020820190506104135f8301846103f1565b92915050565b5f610423826103c1565b9050919050565b61043381610419565b82525050565b5f60208201905061044c5f83018461042a565b92915050565b5f82825260208201905092915050565b7f4f6e6c7920636f6e7472616374206f776e65722063616e2061636365737320745f8201527f6869732066756e6374696f6e0000000000000000000000000000000000000000602082015250565b5f6104bc602c83610452565b91506104c782610462565b604082019050919050565b5f6020820190508181035f8301526104e9816104b0565b9050919050565b7f4f6e6c792064657369676e6174656420726563697069656e742063616e2061635f8201527f6365737320746869732066756e6374696f6e0000000000000000000000000000602082015250565b5f61054a603283610452565b9150610555826104f0565b604082019050919050565b5f6020820190508181035f8301526105778161053e565b9050919050565b7f4f776e657220686173206e6f74206265656e206465636c6172656420646563655f8201527f617365642e000000000000000000000000000000000000000000000000000000602082015250565b5f6105d8602583610452565b91506105e38261057e565b604082019050919050565b5f6020820190508181035f830152610605816105cc565b9050919050565b7f4e6f2066756e647320617661696c61626c6520666f72207769746864726177615f8201527f6c2e000000000000000000000000000000000000000000000000000000000000602082015250565b5f610666602283610452565b91506106718261060c565b604082019050919050565b5f6020820190508181035f8301526106938161065a565b905091905056fea2646970667358221220561e117486b3ad22432cdae73f4c98cd9b6a85106f51776f374047f84fc2ae7464736f6c634300081e0033",
					"opcodes": "PUSH1 0x80 PUSH1 0x40 MSTORE CALLVALUE DUP1 ISZERO PUSH2 0xF JUMPI PUSH0 PUSH0 REVERT JUMPDEST POP PUSH1 0x40 MLOAD PUSH2 0x836 CODESIZE SUB DUP1 PUSH2 0x836 DUP4 CODECOPY DUP2 DUP2 ADD PUSH1 0x40 MSTORE DUP2 ADD SWAP1 PUSH2 0x31 SWAP2 SWAP1 PUSH2 0x12E JUMP JUMPDEST CALLER PUSH1 0x1 PUSH0 PUSH2 0x100 EXP DUP2 SLOAD DUP2 PUSH20 0xFFFFFFFFFFFFFFFFFFFFFFFFFFFFFFFFFFFFFFFF MUL NOT AND SWAP1 DUP4 PUSH20 0xFFFFFFFFFFFFFFFFFFFFFFFFFFFFFFFFFFFFFFFF AND MUL OR SWAP1 SSTORE POP DUP1 PUSH0 PUSH0 PUSH2 0x100 EXP DUP2 SLOAD DUP2 PUSH20 0xFFFFFFFFFFFFFFFFFFFFFFFFFFFFFFFFFFFFFFFF MUL NOT AND SWAP1 DUP4 PUSH20 0xFFFFFFFFFFFFFFFFFFFFFFFFFFFFFFFFFFFFFFFF AND MUL OR SWAP1 SSTORE POP PUSH0 PUSH1 0x1 PUSH1 0x14 PUSH2 0x100 EXP DUP2 SLOAD DUP2 PUSH1 0xFF MUL NOT AND SWAP1 DUP4 ISZERO ISZERO MUL OR SWAP1 SSTORE POP POP PUSH2 0x159 JUMP JUMPDEST PUSH0 PUSH0 REVERT JUMPDEST PUSH0 PUSH20 0xFFFFFFFFFFFFFFFFFFFFFFFFFFFFFFFFFFFFFFFF DUP3 AND SWAP1 POP SWAP2 SWAP1 POP JUMP JUMPDEST PUSH0 PUSH2 0xFD DUP3 PUSH2 0xD4 JUMP JUMPDEST SWAP1 POP SWAP2 SWAP1 POP JUMP JUMPDEST PUSH2 0x10D DUP2 PUSH2 0xF3 JUMP JUMPDEST DUP2 EQ PUSH2 0x117 JUMPI PUSH0 PUSH0 REVERT JUMPDEST POP JUMP JUMPDEST PUSH0 DUP2 MLOAD SWAP1 POP PUSH2 0x128 DUP2 PUSH2 0x104 JUMP JUMPDEST SWAP3 SWAP2 POP POP JUMP JUMPDEST PUSH0 PUSH1 0x20 DUP3 DUP5 SUB SLT ISZERO PUSH2 0x143 JUMPI PUSH2 0x142 PUSH2 0xD0 JUMP JUMPDEST JUMPDEST PUSH0 PUSH2 0x150 DUP5 DUP3 DUP6 ADD PUSH2 0x11A JUMP JUMPDEST SWAP2 POP POP SWAP3 SWAP2 POP POP JUMP JUMPDEST PUSH2 0x6D0 DUP1 PUSH2 0x166 PUSH0 CODECOPY PUSH0 RETURN INVALID PUSH1 0x80 PUSH1 0x40 MSTORE PUSH1 0x4 CALLDATASIZE LT PUSH2 0x4D JUMPI PUSH0 CALLDATALOAD PUSH1 0xE0 SHR DUP1 PUSH4 0x17E99BB8 EQ PUSH2 0x58 JUMPI DUP1 PUSH4 0x482FBCF7 EQ PUSH2 0x6E JUMPI DUP1 PUSH4 0x66D003AC EQ PUSH2 0x98 JUMPI DUP1 PUSH4 0x8DA5CB5B EQ PUSH2 0xC2 JUMPI DUP1 PUSH4 0x9F3C4416 EQ PUSH2 0xEC JUMPI PUSH2 0x54 JUMP JUMPDEST CALLDATASIZE PUSH2 0x54 JUMPI STOP JUMPDEST PUSH0 PUSH0 REVERT JUMPDEST CALLVALUE DUP1 ISZERO PUSH2 0x63 JUMPI PUSH0 PUSH0 REVERT JUMPDEST POP PUSH2 0x6C PUSH2 0x102 JUMP JUMPDEST STOP JUMPDEST CALLVALUE DUP1 ISZERO PUSH2 0x79 JUMPI PUSH0 PUSH0 REVERT JUMPDEST POP PUSH2 0x82 PUSH2 0x1AD JUMP JUMPDEST PUSH1 0x40 MLOAD PUSH2 0x8F SWAP2 SWAP1 PUSH2 0x3A8 JUMP JUMPDEST PUSH1 0x40 MLOAD DUP1 SWAP2 SUB SWAP1 RETURN JUMPDEST CALLVALUE DUP1 ISZERO PUSH2 0xA3 JUMPI PUSH0 PUSH0 REVERT JUMPDEST POP PUSH2 0xAC PUSH2 0x1C0 JUMP JUMPDEST PUSH1 0x40 MLOAD PUSH2 0xB9 SWAP2 SWAP1 PUSH2 0x400 JUMP JUMPDEST PUSH1 0x40 MLOAD DUP1 SWAP2 SUB SWAP1 RETURN JUMPDEST CALLVALUE DUP1 ISZERO PUSH2 0xCD JUMPI PUSH0 PUSH0 REVERT JUMPDEST POP PUSH2 0xD6 PUSH2 0x1E4 JUMP JUMPDEST PUSH1 0x40 MLOAD PUSH2 0xE3 SWAP2 SWAP1 PUSH2 0x439 JUMP JUMPDEST PUSH1 0x40 MLOAD DUP1 SWAP2 SUB SWAP1 RETURN JUMPDEST CALLVALUE DUP1 ISZERO PUSH2 0xF7 JUMPI PUSH0 PUSH0 REVERT JUMPDEST POP PUSH2 0x100 PUSH2 0x209 JUMP JUMPDEST STOP JUMPDEST PUSH1 0x1 PUSH0 SWAP1 SLOAD SWAP1 PUSH2 0x100 EXP SWAP1 DIV PUSH20 0xFFFFFFFFFFFFFFFFFFFFFFFFFFFFFFFFFFFFFFFF AND PUSH20 0xFFFFFFFFFFFFFFFFFFFFFFFFFFFFFFFFFFFFFFFF AND CALLER PUSH20 0xFFFFFFFFFFFFFFFFFFFFFFFFFFFFFFFFFFFFFFFF AND EQ PUSH2 0x191 JUMPI PUSH1 0x40 MLOAD PUSH32 0x8C379A000000000000000000000000000000000000000000000000000000000 DUP2 MSTORE PUSH1 0x4 ADD PUSH2 0x188 SWAP1 PUSH2 0x4D2 JUMP JUMPDEST PUSH1 0x40 MLOAD DUP1 SWAP2 SUB SWAP1 REVERT JUMPDEST PUSH1 0x1 DUP1 PUSH1 0x14 PUSH2 0x100 EXP DUP2 SLOAD DUP2 PUSH1 0xFF MUL NOT AND SWAP1 DUP4 ISZERO ISZERO MUL OR SWAP1 SSTORE POP JUMP JUMPDEST PUSH1 0x1 PUSH1 0x14 SWAP1 SLOAD SWAP1 PUSH2 0x100 EXP SWAP1 DIV PUSH1 0xFF AND DUP2 JUMP JUMPDEST PUSH0 PUSH0 SWAP1 SLOAD SWAP1 PUSH2 0x100 EXP SWAP1 DIV PUSH20 0xFFFFFFFFFFFFFFFFFFFFFFFFFFFFFFFFFFFFFFFF AND DUP2 JUMP JUMPDEST PUSH1 0x1 PUSH0 SWAP1 SLOAD SWAP1 PUSH2 0x100 EXP SWAP1 DIV PUSH20 0xFFFFFFFFFFFFFFFFFFFFFFFFFFFFFFFFFFFFFFFF AND DUP2 JUMP JUMPDEST PUSH0 PUSH0 SWAP1 SLOAD SWAP1 PUSH2 0x100 EXP SWAP1 DIV PUSH20 0xFFFFFFFFFFFFFFFFFFFFFFFFFFFFFFFFFFFFFFFF AND PUSH20 0xFFFFFFFFFFFFFFFFFFFFFFFFFFFFFFFFFFFFFFFF AND CALLER PUSH20 0xFFFFFFFFFFFFFFFFFFFFFFFFFFFFFFFFFFFFFFFF AND EQ PUSH2 0x297 JUMPI PUSH1 0x40 MLOAD PUSH32 0x8C379A000000000000000000000000000000000000000000000000000000000 DUP2 MSTORE PUSH1 0x4 ADD PUSH2 0x28E SWAP1 PUSH2 0x560 JUMP JUMPDEST PUSH1 0x40 MLOAD DUP1 SWAP2 SUB SWAP1 REVERT JUMPDEST PUSH1 0x1 PUSH1 0x14 SWAP1 SLOAD SWAP1 PUSH2 0x100 EXP SWAP1 DIV PUSH1 0xFF AND PUSH2 0x2E6 JUMPI PUSH1 0x40 MLOAD PUSH32 0x8C379A000000000000000000000000000000000000000000000000000000000 DUP2 MSTORE PUSH1 0x4 ADD PUSH2 0x2DD SWAP1 PUSH2 0x5EE JUMP JUMPDEST PUSH1 0x40 MLOAD DUP1 SWAP2 SUB SWAP1 REVERT JUMPDEST PUSH0 SELFBALANCE GT PUSH2 0x328 JUMPI PUSH1 0x40 MLOAD PUSH32 0x8C379A000000000000000000000000000000000000000000000000000000000 DUP2 MSTORE PUSH1 0x4 ADD PUSH2 0x31F SWAP1 PUSH2 0x67C JUMP JUMPDEST PUSH1 0x40 MLOAD DUP1 SWAP2 SUB SWAP1 REVERT JUMPDEST PUSH0 PUSH0 SWAP1 SLOAD SWAP1 PUSH2 0x100 EXP SWAP1 DIV PUSH20 0xFFFFFFFFFFFFFFFFFFFFFFFFFFFFFFFFFFFFFFFF AND PUSH20 0xFFFFFFFFFFFFFFFFFFFFFFFFFFFFFFFFFFFFFFFF AND PUSH2 0x8FC SELFBALANCE SWAP1 DUP2 ISZERO MUL SWAP1 PUSH1 0x40 MLOAD PUSH0 PUSH1 0x40 MLOAD DUP1 DUP4 SUB DUP2 DUP6 DUP9 DUP9 CALL SWAP4 POP POP POP POP ISZERO DUP1 ISZERO PUSH2 0x38B JUMPI RETURNDATASIZE PUSH0 PUSH0 RETURNDATACOPY RETURNDATASIZE PUSH0 REVERT JUMPDEST POP JUMP JUMPDEST PUSH0 DUP2 ISZERO ISZERO SWAP1 POP SWAP2 SWAP1 POP JUMP JUMPDEST PUSH2 0x3A2 DUP2 PUSH2 0x38E JUMP JUMPDEST DUP3 MSTORE POP POP JUMP JUMPDEST PUSH0 PUSH1 0x20 DUP3 ADD SWAP1 POP PUSH2 0x3BB PUSH0 DUP4 ADD DUP5 PUSH2 0x399 JUMP JUMPDEST SWAP3 SWAP2 POP POP JUMP JUMPDEST PUSH0 PUSH20 0xFFFFFFFFFFFFFFFFFFFFFFFFFFFFFFFFFFFFFFFF DUP3 AND SWAP1 POP SWAP2 SWAP1 POP JUMP JUMPDEST PUSH0 PUSH2 0x3EA DUP3 PUSH2 0x3C1 JUMP JUMPDEST SWAP1 POP SWAP2 SWAP1 POP JUMP JUMPDEST PUSH2 0x3FA DUP2 PUSH2 0x3E0 JUMP JUMPDEST DUP3 MSTORE POP POP JUMP JUMPDEST PUSH0 PUSH1 0x20 DUP3 ADD SWAP1 POP PUSH2 0x413 PUSH0 DUP4 ADD DUP5 PUSH2 0x3F1 JUMP JUMPDEST SWAP3 SWAP2 POP POP JUMP JUMPDEST PUSH0 PUSH2 0x423 DUP3 PUSH2 0x3C1 JUMP JUMPDEST SWAP1 POP SWAP2 SWAP1 POP JUMP JUMPDEST PUSH2 0x433 DUP2 PUSH2 0x419 JUMP JUMPDEST DUP3 MSTORE POP POP JUMP JUMPDEST PUSH0 PUSH1 0x20 DUP3 ADD SWAP1 POP PUSH2 0x44C PUSH0 DUP4 ADD DUP5 PUSH2 0x42A JUMP JUMPDEST SWAP3 SWAP2 POP POP JUMP JUMPDEST PUSH0 DUP3 DUP3 MSTORE PUSH1 0x20 DUP3 ADD SWAP1 POP SWAP3 SWAP2 POP POP JUMP JUMPDEST PUSH32 0x4F6E6C7920636F6E7472616374206F776E65722063616E206163636573732074 PUSH0 DUP3 ADD MSTORE PUSH32 0x6869732066756E6374696F6E0000000000000000000000000000000000000000 PUSH1 0x20 DUP3 ADD MSTORE POP JUMP JUMPDEST PUSH0 PUSH2 0x4BC PUSH1 0x2C DUP4 PUSH2 0x452 JUMP JUMPDEST SWAP2 POP PUSH2 0x4C7 DUP3 PUSH2 0x462 JUMP JUMPDEST PUSH1 0x40 DUP3 ADD SWAP1 POP SWAP2 SWAP1 POP JUMP JUMPDEST PUSH0 PUSH1 0x20 DUP3 ADD SWAP1 POP DUP2 DUP2 SUB PUSH0 DUP4 ADD MSTORE PUSH2 0x4E9 DUP2 PUSH2 0x4B0 JUMP JUMPDEST SWAP1 POP SWAP2 SWAP1 POP JUMP JUMPDEST PUSH32 0x4F6E6C792064657369676E6174656420726563697069656E742063616E206163 PUSH0 DUP3 ADD MSTORE PUSH32 0x6365737320746869732066756E6374696F6E0000000000000000000000000000 PUSH1 0x20 DUP3 ADD MSTORE POP JUMP JUMPDEST PUSH0 PUSH2 0x54A PUSH1 0x32 DUP4 PUSH2 0x452 JUMP JUMPDEST SWAP2 POP PUSH2 0x555 DUP3 PUSH2 0x4F0 JUMP JUMPDEST PUSH1 0x40 DUP3 ADD SWAP1 POP SWAP2 SWAP1 POP JUMP JUMPDEST PUSH0 PUSH1 0x20 DUP3 ADD SWAP1 POP DUP2 DUP2 SUB PUSH0 DUP4 ADD MSTORE PUSH2 0x577 DUP2 PUSH2 0x53E JUMP JUMPDEST SWAP1 POP SWAP2 SWAP1 POP JUMP JUMPDEST PUSH32 0x4F776E657220686173206E6F74206265656E206465636C617265642064656365 PUSH0 DUP3 ADD MSTORE PUSH32 0x617365642E000000000000000000000000000000000000000000000000000000 PUSH1 0x20 DUP3 ADD MSTORE POP JUMP JUMPDEST PUSH0 PUSH2 0x5D8 PUSH1 0x25 DUP4 PUSH2 0x452 JUMP JUMPDEST SWAP2 POP PUSH2 0x5E3 DUP3 PUSH2 0x57E JUMP JUMPDEST PUSH1 0x40 DUP3 ADD SWAP1 POP SWAP2 SWAP1 POP JUMP JUMPDEST PUSH0 PUSH1 0x20 DUP3 ADD SWAP1 POP DUP2 DUP2 SUB PUSH0 DUP4 ADD MSTORE PUSH2 0x605 DUP2 PUSH2 0x5CC JUMP JUMPDEST SWAP1 POP SWAP2 SWAP1 POP JUMP JUMPDEST PUSH32 0x4E6F2066756E647320617661696C61626C6520666F7220776974686472617761 PUSH0 DUP3 ADD MSTORE PUSH32 0x6C2E000000000000000000000000000000000000000000000000000000000000 PUSH1 0x20 DUP3 ADD MSTORE POP JUMP JUMPDEST PUSH0 PUSH2 0x666 PUSH1 0x22 DUP4 PUSH2 0x452 JUMP JUMPDEST SWAP2 POP PUSH2 0x671 DUP3 PUSH2 0x60C JUMP JUMPDEST PUSH1 0x40 DUP3 ADD SWAP1 POP SWAP2 SWAP1 POP JUMP JUMPDEST PUSH0 PUSH1 0x20 DUP3 ADD SWAP1 POP DUP2 DUP2 SUB PUSH0 DUP4 ADD MSTORE PUSH2 0x693 DUP2 PUSH2 0x65A JUMP JUMPDEST SWAP1 POP SWAP2 SWAP1 POP JUMP INVALID LOG2 PUSH5 0x6970667358 0x22 SLT KECCAK256 JUMP 0x1E GT PUSH21 0x86B3AD22432CDAE73F4C98CD9B6A85106F51776F37 BLOCKHASH SELFBALANCE EXTCALL 0x4F 0xC2 0xAE PUSH21 0x64736F6C634300081E003300000000000000000000 "
				},
				"gasEstimates": {
					"creation": {
						"codeDepositCost": "348800",
						"executionCost": "infinite",
						"totalCost": "infinite"
					},
					"external": {
						"claimInheritance()": "infinite",
						"isOwnerDeceased()": "2517",
						"markOwnerDeceased()": "26607",
						"owner()": "2552",
						"recipient()": "2529"
					}
				},
				"methodIdentifiers": {
					"claimInheritance()": "9f3c4416",
					"isOwnerDeceased()": "482fbcf7",
					"markOwnerDeceased()": "17e99bb8",
					"owner()": "8da5cb5b",
					"recipient()": "66d003ac"
				}
			},
			"storageLayout": {
				"storage": [
					{
						"astId": 3,
						"contract": "SimpleContract.sol:InheritanceContract",
						"label": "recipient",
						"offset": 0,
						"slot": "0",
						"type": "t_address_payable"
					},
					{
						"astId": 5,
						"contract": "SimpleContract.sol:InheritanceContract",
						"label": "owner",
						"offset": 0,
						"slot": "1",
						"type": "t_address"
					},
					{
						"astId": 7,
						"contract": "SimpleContract.sol:InheritanceContract",
						"label": "isOwnerDeceased",
						"offset": 20,
						"slot": "1",
						"type": "t_bool"
					}
				],
				"types": {
					"t_address": {
						"encoding": "inplace",
						"label": "address",
						"numberOfBytes": "20"
					},
					"t_address_payable": {
						"encoding": "inplace",
						"label": "address payable",
						"numberOfBytes": "20"
					},
					"t_bool": {
						"encoding": "inplace",
						"label": "bool",
						"numberOfBytes": "1"
					}
				}
			},
			"userdoc": {
				"kind": "user",
				"methods": {},
				"version": 1
			}
		}
	}
}